:020000040800F2
:1000000000500020350800087B0800087D08000823
:100010007F0800088108000883080008000000002D
:10002000000000000000000000000000850800083B
:100030008708000800000000890800088B080008F5
:100040008F08000891080008930800089508000828
:1000500097080008990800089B0800089D080008F8
:100060009F080008A1080008A3080008A5080008C8
:10007000A7080008A9080008AB080008AD08000898
:10008000AF080008B1080008B3080008B508000868
:10009000B7080008B9080008BB080008BD08000838
:1000A000BF080008C1080008C3080008C508000808
:1000B000C7080008C9080008CB080008CD080008D8
:1000C000CF080008D1080008D3080008D5080008A8
:1000D000D7080008D9080008DB080008DD08000878
:1000E000DF080008E1080008E308000810B5054C27
:1000F000237833B9044B13B10448AFF300800123D4
:10010000237010BD6800002000000000080B0008EC
:1001100008B5064B1BB106480649AFF300800648F8
:10012000036813B1054B03B1984708BD00000000F8
:10013000080B00086C000020680000200000000090
:10014000154B002B08BF134B9D46A3F5803A0021A9
:100150008B460F461348144A121A00F0BBFC0F4B93
:10016000002B00D098470E4B002B00D09847002062
:10017000002104000D000D48002802D00C48AFF308
:10018000008000F081FC2000290000F08BFA00F0D4
:1001900067FC00BF000008000050002000000000C5
:1001A0000000000068000020900000200000000017
:1001B0000000000080B489B000AF7860396000238F
:1001C000FB6100233B610023BB610023FB60002334
:1001D0007B610023BB603B68DB7803F00F03FB61AE
:1001E0003B68DB7803F01003002B04D03B689B785E
:1001F000FA691343FB613B681B88DBB2002B44D0D8
:100200007B681B687B610023BB6138E0BB6901220E
:1002100002FA03F3FB603B681B881A46FB68134035
:100220003B613A69FB689A4226D1BB699B00FB603F
:10023000FB680F2202FA03F3BB60BB68DB437A69F9
:1002400013407B61FB68FA6902FA03F37A6913438E
:100250007B613B68DB78282B05D1BB6901229A4082
:100260007B685A6108E03B68DB78482B04D1BB69A6
:1002700001229A407B681A61BB690133BB61BB698B
:10028000072BC3D97B687A691A603B681B88FF2BF0
:1002900046D97B685B687B610023BB613AE0BB6940
:1002A0000833012202FA03F3FB603B681B881A46FD
:1002B000FB6813403B613A69FB689A4227D1BB69EE
:1002C0009B00FB60FB680F2202FA03F3BB60BB6874
:1002D000DB437A6913407B61FB68FA6902FA03F336
:1002E0007A6913437B613B68DB78282B05D1BB69B6
:1002F000083301229A407B685A613B68DB78482BBF
:1003000005D1BB69083301229A407B681A61BB6939
:100310000133BB61BB69072BC1D97B687A695A601D
:100320002437BD465DF8047B704700BF80B483B0BE
:1003300000AF78607B684FF6FF721A807B680222FC
:100340009A707B680422DA700C37BD465DF8047B36
:10035000704700BF80B483B000AF78600B467B80ED
:100360007A887B681A610C37BD465DF8047B70475C
:1003700080B483B000AF78600B467B807A887B685E
:100380005A610C37BD465DF8047B704780B483B07A
:1003900000AF78600B46FB70FB78002B06D0094B52
:1003A000084A91697A680A439A6106E0054B054A52
:1003B00091697A68D2430A409A610C37BD465DF86C
:1003C000047B70470010024080B485B000AF7860B5
:1003D00039600023FB817B681B88FB81FB8903F468
:1003E0004153FB813B681A883B685B8813439AB290
:1003F0003B689B8813439AB23B68DB8813439AB2ED
:100400003B681B8913439AB23B685B8913439AB2DA
:100410003B689B8913439AB23B68DB8913439AB2CA
:10042000FB891343FB817B68FA891A807B689B8B6D
:100430009BB223F400639AB27B689A833B681A8A62
:100440007B681A821437BD465DF8047B704700BF95
:1004500080B483B000AF78607B6800221A807B682C
:1004600000225A807B6800229A807B680022DA8012
:100470007B6800221A817B6800225A817B680022F7
:100480009A817B680022DA817B6807221A820C3706
:10049000BD465DF8047B704780B483B000AF7860E0
:1004A0000B46FB70FB78002B08D07B681B889BB247
:1004B00043F040039AB27B681A8007E07B681B8890
:1004C0009BB223F040039AB27B681A800C37BD467A
:1004D0005DF8047B704700BF80B483B000AF7860E4
:1004E0000B467B807B687A889A810C37BD465DF825
:1004F000047B704780B483B000AF78607B689B89D1
:100500009BB218460C37BD465DF8047B704700BFB0
:1005100080B483B000AF78600B467B807A884FF65A
:10052000FF639A4208D07B681B889BB243F48073B8
:100530009AB27B681A8007E07B681B889BB223F421
:1005400080739AB27B681A800C37BD465DF8047BD5
:10055000704700BF80B485B000AF78600B467B80E9
:100560000023FB737B681B899AB27B8813409BB284
:10057000002B02D00123FB7301E00023FB73FB7B04
:1005800018461437BD465DF8047B704780B582B0CD
:1005900000AF0346FB7105E0FB799BB20E4819469C
:1005A000FFF79AFF0C480221FFF7D4FF0346002B08
:1005B000F2D000BF08480121FFF7CCFF0346012B12
:1005C00005D10548FFF796FF0346DBB2FFE7184663
:1005D0000837BD4680BD00BF0030014080B584B003
:1005E00000AF0346FB71FB7963F07F03FB730023CD
:1005F000BB731B480221FFF7BBFEFB7B1846FFF7CE
:10060000C5FF184B174A128892B242F4804292B248
:100610001A80144B134A128892B242F0400292B2EE
:100620001A800020FFF7B2FF0346BB730D4B0D4A43
:10063000128892B222F4804292B21A80094B094A7F
:10064000128892B242F0400292B21A80044802210B
:10065000FFF780FEBB7B18461037BD4680BD00BF4C
:10066000000801400030014080B584B000AF024670
:100670000B46FA71BB71FB79FB7309480221FFF746
:1006800077FEFB7B1846FFF781FFBB791846FFF723
:100690007DFF03480221FFF75DFE1037BD4680BD98
:1006A0000008014098B500AF00F056F800F0AAF835
:1006B00027480221FFF74EFE2D200821FFF7D4FF27
:1006C0002D200021FFF7D0FF2D200821FFF7CCFFC0
:1006D00031204021FFF7C8FF0020FFF77FFF0346CE
:1006E0001A461C4B1A603220FFF778FF03461A02A5
:1006F000184B1A60174B1C683320FFF76FFF034637
:1007000044EA0302134B1A603420FFF767FF0346E5
:100710001A02104B5A600F4B5C683520FFF75EFFE2
:10072000034644EA03020B4B5A603620FFF756FF9C
:1007300003461A02074B9A60064B9C683720FFF766
:100740004DFF034644EA0302024B9A60CBE700BF29
:10075000000801408400002080B586B000AF04206E
:100760000121FFF713FE4FF480500121FFF70EFE29
:1007700007F114031846FFF7D9FDE023BB821823C5
:10078000FB750323BB7507F114031C481946FFF7DB
:1007900011FD1023FB750323BB750223BB8207F1F8
:1007A000140316481946FFF705FD3B461846FFF7A8
:1007B0004FFE4FF482737B8001233B810223FB8039
:1007C0000023BB808023FB814FF400737B814FF4B7
:1007D00000433B802023BB813B4609481946FFF775
:1007E000F3FD07480121FFF757FE05484FF48071DC
:1007F000FFF78EFE1837BD4680BD00BF00080140E0
:100800000030014080B582B000AF08200121FFF721
:10081000BDFD0323BB711023FB710223BB803B1D75
:1008200003481946FFF7C6FC0837BD4680BD00BF28
:10083000000C01400649074A074B9A42BEBF51F8D7
:10084000040B42F8040BF8E70448804704480047CB
:10085000140B00080000002068000020ED080008CC
:10086000410100081F49204A002301E041F8043BF0
:100870009142FBD3FFF716FFFEE7FEE7FEE7FEE738
:10088000FEE7FEE7FEE7FEE7FEE7FEE7FEE7FEE740
:10089000FEE7FEE7FEE7FEE7FEE7FEE7FEE7FEE730
:1008A000FEE7FEE7FEE7FEE7FEE7FEE7FEE7FEE720
:1008B000FEE7FEE7FEE7FEE7FEE7FEE7FEE7FEE710
:1008C000FEE7FEE7FEE7FEE7FEE7FEE7FEE7FEE700
:1008D000FEE7FEE7FEE7FEE7FEE7FEE7FEE7FEE7F0
:1008E000FEE7FEE7680000209000002080B500AF22
:1008F000154B154A126842F001021A60124A124B57
:100900005968124B0B4053600F4A0F4B1B6823F082
:10091000847323F4803313600B4B0B4A126822F468
:1009200080221A60084B084A526822F4FE025A607C
:10093000054B4FF41F029A6000F00CF8044B4FF087
:1009400000629A6080BD00BF001002400000FFF806
:1009500000ED00E080B500AF00F002F880BD00BF00
:1009600080B483B000AF00237B6000233B603A4B30
:10097000394A126842F480321A60374B1B6803F41C
:1009800000333B607B6801337B603B68002B03D105
:100990007B68B3F5A06FF0D12F4B1B6803F40033D5
:1009A000002B02D001233B6001E000233B603B6849
:1009B000012B4BD1294B294A126842F010021A60D0
:1009C000264B264A126822F003021A60234B234A60
:1009D000126842F002021A601F4B1F4A52685A60A6
:1009E0001D4B1D4A52685A601B4B1B4A526842F409
:1009F00080625A60184B184A526822F47C125A607E
:100A0000154B154A526842F4E8125A60124B124ACA
:100A1000126842F080721A6000BF0F4B1B6803F02F
:100A20000073002BF9D00C4B0B4A526822F00302E2
:100A30005A60094B084A526842F002025A6000BFED
:100A4000054B5B6803F00C03082BF9D10C37BD464E
:100A50005DF8047B704700BF001002400020024098
:100A600008B5074B044613B10021AFF30080054BD6
:100A70001868836A03B19847204600F033F800BF36
:100A800000000000040B000870B50E4B0E4D002452
:100A9000ED1AAD101E46AC4204D056F82420904703
:100AA0000134F8E700F020F8084D094B0024ED1A56
:100AB000AD101E46AC4204D056F8242090470134B5
:100AC000F8E770BD60000020600000206400002096
:100AD0006000002002440346934202D003F8011B49
:100AE000FAE77047FEE70000F8B500BFF8BC08BCA5
:100AF0009E467047F8B500BFF8BC08BC9E467047DC
:0C0B000043000000000000200000000086
:080B0C0034F6FF7F0100000038
:100B140000000000000000000000000000000000D1
:100B240000000000000000000000000000000000C1
:100B3400000B00080000000000000000000000009E
:100B440000000000000000000000000000000000A1
:100B54000000000000000000000000000000000091
:100B64000000000000000000000000000000000081
:080B740011010008ED0000086A
:0400000508000000EF
:00000001FF
